:02000004C0DE5C
:1000000010B5044662B607F009FA002C09D00120A9
:1000100000022168814208D16068012809D1A068E6
:1000200000E0002007F0C6F801E007F0A3F8002088
:1000300010BD204607F040F9F0B597B0149315466F
:100040000E46044601787F200D9108400021139050
:10005000052808460F460A460B4612910C9516963F
:1000600000D1A6E0208B00F0ADFA002861D02789EE
:100070008279002E5AD0002D58D010970E92208BE6
:10008000E188149A0092EBB2643189B2324600F0F2
:10009000BDFA0746E0880021052D0F9150D3874215
:1000A0004ED9208B149900916421CF4A7A440323BE
:1000B00000F0ACFA11906B08F218E08800210B9167
:1000C0001592B11A4D191295002B3CD081B28F4276
:1000D00039D9002D37D0208B149D00951E46DBB2F8
:1000E000169A00F093FA0746E188208B0095129D3E
:1000F000EBB2159A00F08AFA3346119979180F1865
:10010000E0888742E0D90B99012905D000290C9D90
:10011000169E06D15B1E04E01599491C15910C9D95
:10012000169E01210B9A9143159AC8E700210846B3
:1001300003E0002108460F460A460B46129138E0BC
:100140001295159100E012930325AE03218B0E400A
:100150000122D3039E42119509D093039E420F9B27
:100160001D460DD180B2C51BE817854308E0FB0F83
:10017000FB185B1080B24008C51AE81785430F9B37
:100180001198000301405003814206D010038142C0
:100190000BD120890E9A831A05E00E9A5008C043AD
:1001A000218949080B18159801E015980E9A2946DF
:1001B000109F119115900EA88CC0E38858082789CC
:1001C00079088842024600D30A46E67AB2423246AD
:1001D000139D04D8884201D2024600E00A46681EF8
:1001E000042804D3062D46D0072D00D0FAE0042DB4
:1001F0000AD1002E08D10420225E0220215E20694F
:10020000009709F0E1F8EDE00D98022805D00728E5
:1002100003D0872801D0822845D1072D00D0109720
:100220000220215E0420225E6069109E0096072D48
:10023000169D01D10E9E921B09F0C6F8002D139A4F
:1002400000D1CFE0042A00D1CCE00C98002800D1E6
:10025000C8E00220024323696169032A54D1227B4A
:10026000012A1E4600D00E46012A169D00D01946CE
:100270000D9610914BE00420205E82190220205E32
:1002800081192069257B0023012D03D0A57AAE4278
:1002900000D9731B6469FF250095019302943346CE
:1002A00000F0F8FA9EE0207B012800D09EE00420B8
:1002B0000D901546225E02200B90215E206900976A
:1002C00069186E009B1BBC4F7F441097B8470B9872
:1002D000215E0D98225E2089831B20690093AA1855
:1002E0002B46109FB8470B98215E0D98225E2089FF
:1002F000831B2069E6880093AA18491B89192B469D
:10030000109EB0472946E4E010930D91169D215EA2
:1003100004200B90225E208BE388264627890395D4
:10032000129C0494149D0595139D072D01D00F9CDC
:1003300000E0002412943F1B119C1B1B01930297A9
:10034000072D344601D00F9B01E00E9B5B42109DB0
:100350000D9E0F939A180092119A5318294632460F
:1003600000F0A4F9159900293CD0954979440A91E7
:1003700013900B98235E208B0E90E78829461095EA
:1003800032460D96268903251298361A11983F1A7F
:100390000F98C3180093019702960A98039004954A
:1003A000149E0596139883B20E9800F07FF913906F
:1003B0000B98225E208BE38824890C9D169FED19F3
:1003C000159FED1B1299641A11995B1A0F998A18DF
:1003D00000A99CC10495059613998BB210990D9AAA
:1003E00000F064F917B0F0BD64E00000042009904B
:1003F0001092225E0220215E06460D9060690097F1
:10040000109D6918109D6D005B1B2F46694D7D4442
:100410000A95A847A15F099D625F2089C31B0B97BE
:1004200060690093109B9A18109B0A9EB0470D9824
:10043000215E625F2089C31B6669E0880093109B80
:100440009A18109BDB43C91809183046109B0A9E66
:10045000B047605F08900D9FE15F2269E388A07A52
:100460000090109841180B981B1A1046089AB04734
:10047000605F08903D46E15F206907902289E3882C
:10048000A07A0090109841180B9FDB1B08988018E9
:10049000421E0798B047605F0890099D625F2089FF
:1004A000C11BA37A2069009110998A180899B04756
:1004B0000D98215E625F2089C51BA77A2369E088B9
:1004C0000095109DAA180818411E18463B46B047D3
:1004D0001099169D022900D2B0E6207B012801D197
:1004E0000D4603E0A07A0D460F1A00D20027042023
:1004F0001090205E0A9002200B90215E20696369B3
:10050000C02200920197029369180A9AAA182B4EEA
:100510007E440A962B46B0470B98205E08901098B0
:10052000225E206909906369A17AE0880D973026E0
:10053000009601970293AA18089B5B1B1818411A92
:1005400009982B460A9FB8471098205E08900B9E8A
:10055000A15F206909906369A07A079020890C2225
:1005600000920D9A019202936918089A521B101872
:10057000079A821A09982B46B847A05F0B901098EB
:10058000225E206910906369E6882789A07A03219A
:1005900000910D99019102932918511ACA190B99CA
:1005A000491B8919091A10982B460A9DA847169DC0
:1005B00044E6C046B78F0000FD90000081030000B4
:1005C000A4DD0000F8B50E4D05400E4878440168E2
:1005D00088000D4A7A448018001F4E1C761E0CD0ED
:1005E000071F0468204607F02DFE0068A842384621
:1005F000F4D1204607F026FEF8BD0020F8BDC04625
:10060000FF0F000038F0000024F00000FEB51C468B
:1006100015460191FFF7D6FF0022002843D0019B29
:10062000029021063FD006892F78B74202D3418934
:10063000B94213D20A2F36D00D2F34D0B80903286F
:1006400003D33F2007403E4622E078B20026002830
:100650001ED5B80600920BD50F200AE0B91B8E00FC
:10066000C068174607F0EEFD019B3A46865D0FE035
:100670000E20FFF7A7FF0028009A019B08D0C06852
:10068000164607F0DFFD019B3246F906490E465C2F
:10069000002B03D090B23018984204D8641E6D1C11
:1006A00092190298BDE790B2FEBDD4D4F0B5A3B0C4
:1006B0001C46154614911392FFF784FF002800D1C1
:1006C000DCE003460A952C9D2B982A99299A289EAE
:1006D000129689190E9111190C910027FA430D9465
:1006E000214655436D1C012D00D1C2E0441C067803
:1006F0000D2F03D10A270A2E2046F3D0554318891F
:100700005F7910978642624F7F440B97119102D315
:100710005989B1420FD20D2E01D00A2E25D112983F
:1007200010994018129040180E99884220460D9951
:100730003746D6DDA5E00992371A18690F930B9E4C
:10074000B04708900F98C068B047B90006914018AC
:1007500040880899081807900F98C068B0470F9B09
:100760000699465CD879089010E0C02E099205D30E
:100770003F213140002037460E4605E070B2002888
:100780003FD40020374606460890079012990A4643
:1007900011980B9680190C9EB04208DD109809182C
:1007A00008180E9A90426FDC0D9811900A4612912B
:1007B000079800280B9E0F9314D0069202461098BB
:1007C00070431979484304900392029113A8019051
:1007D000012088400090119806993246109B08F03D
:1007E000DBFD06E0109800900A981199334608F056
:1007F000EBFD089830181199411820460F9B099A73
:100800006FE7B0060F9301D50F2000E00E20FFF731
:10081000D9FE002824D0089000690B9FB84710909B
:100820000898C068B8473A46F106490E0691401844
:100830004088109908180790089FF8689047069913
:10084000405C0B900F9B987912990818B979421A5D
:10085000787910900020089037460B9E129997E700
:100860000020374606460890079012990A460F9BCB
:100870008EE788B212990904081800E0002023B01E
:10088000F0BD119880B2F5E7119880B2F3E7C04649
:10089000397B0000F0B59BB018921791074621985C
:1008A000411E02468A4119921A1A01210026149209
:1008B000002A0A4600DC3246199C14401994802212
:1008C000209C22401092402222400E922022224060
:1008D0000D92102222400C92082222400B920422F8
:1008E00022400A920222224009920C400F94CD1A13
:1008F000149A891A0591C01A401C0390501E079043
:100900001798801A401C06901898401E04900320E7
:10091000229911913246139308979A4200DD66E1BD
:100920001C4612900F980028159616951A9224D0FE
:100930001998002816D0189885180126009607984F
:10094000231A1198179F39462A4608F03DFD009654
:10095000159EE21908980599511807462A46169DD2
:10096000149B07E00120009004981A994218384619
:100970001799234608F028FD1A9A0998002828D0CC
:10098000199800281AD0189825181398A04209D051
:100990000120009003988318119817992A4608F0AF
:1009A00013FD1A9A012000900698811838462A46AD
:1009B000149B08F009FD1A9A169D0AE00120009088
:1009C00018982018421E384617991A9B08F0FCFC0C
:1009D0001A9A0A98002823D01798061B19980028FD
:1009E00012D018988218029201270097079D631B66
:1009F0001198314608F0E8FC00970898711B0746EB
:100A0000029A169D149B07E00120009004981A9901
:100A1000421838463146234608F0D6FC1A9A159EED
:100A20000B9800282BD01998002805D01398A042C5
:100A30000ED11898251817E00120009017988119F9
:100A400018982018421E38461A9B08F0BDFC15E085
:100A50000120009017988119189825180398831879
:100A600011982A4608F0B0FC0120009006988119E0
:100A700038462A46149B08F0A7FC169D1A9A0C9833
:100A8000002822D0189886191998002813D001251B
:100A900000950798231A1198179F3946324608F097
:100AA00093FC0095169DE219089805995118074680
:100AB0003246149B05E001200090384617993246D3
:100AC000234608F081FC1A9A159E0D98002827D01D
:100AD000199800281AD01898051B1398A04209D01D
:100AE0000120009003988318119817992A4608F05E
:100AF0006BFC1A9A012000900698811838462A4605
:100B0000149B08F061FC1A9A169D09E001200090E0
:100B10001898021B384617991A9B08F055FC1A9A28
:100B20000E98002823D0189886191798051B199835
:100B3000002811D0012002900090079FE31B11981C
:100B40002946324608F040FC029800900898E91BBC
:100B500007463246149B05E001200090384629469E
:100B60003246234608F030FC1A9A159E169D1098BE
:100B700000282AD01998002805D01398A0420DD13A
:100B80001898051B16E001200090179881191898F5
:100B9000021B38461A9B08F017FC15E00120009054
:100BA000179881191898051B0398831811982A46DD
:100BB00008F00AFC012000900698811938462A4660
:100BC000149B08F001FC169D1A9A601E012D234605
:100BD00000DB0346012D00DA00204000281A12999C
:100BE0000D180846881C761E521C139495E61BB0FF
:100BF000F0BDF0B589B08E68022E20D80C460421D5
:100C0000415E08910221405E059020680690606870
:100C10000790E06807F016FB0546A768206907F013
:100C200011FB0ECC0124B4404B43534300A9B0C187
:100C300003900493089905AB0DCB08F0ADFB09B008
:100C4000F0BDD4D4F0B5C7B001AE30706F4600240B
:100C50003C7041AD18222846214607F0E1FA0120F8
:100C60004690459744904396064841902846214631
:100C700004F092FE002801D4009800E0E043C0B2E6
:100C800047B0F0BD3F008500F0B5C7B04F9C250EC2
:100C900001AEB572250C7572250A3572F471509C3F
:100CA000F4724E9CB4714D9C74714C9C3471F37011
:100CB000B270717030706F4600243C7041AD1822E4
:100CC0002846214607F0ACFA0120469045970C20B3
:100CD00044904396064841902846214604F05CFE25
:100CE000002801D4009800E0E043C0B247B0F0BD56
:100CF0003F008600F0B5C7B00A0C01AEB28071802B
:100D000030806F4600243C7041AD182228462146B1
:100D100007F086FA012046904597062044904396B6
:100D2000064841902846214604F036FE002801D4AA
:100D3000009800E0E043C0B247B0F0BD3F0088003B
:100D4000F0B5CDB0019302920391044605A804903A
:100D50000026072731463A4607F062FA07AD0298A7
:100D6000A870039868702C7047AC18222046314652
:100D700007F056FA4C97049F4B9703204A904995E9
:100D8000114847902046314604F006FE002818D44A
:100D900005A80078002815D1781C5399529A037839
:100DA00044782402E318019C23808378C4782402C9
:100DB000E3181380027940790002801808803046D9
:100DC00000E0FF204DB0F0BD3F008A00F0B5C7B095
:100DD00001AEB17030806F4600243C7041AD1822E6
:100DE0002846214607F01CFA01204690459703202B
:100DF000449043960F204290064841902846214651
:100E000004F0CAFD002801D4009800E0E043C0B21D
:100E100047B0F0BD3F009300F0B5C7B001AEB17070
:100E200030806F4600243C7041AD18222846214690
:100E300007F0F6F901204690459703204490439629
:100E4000064841902846214604F0A6FD002801D41A
:100E5000009800E0E043C0B247B0F0BD3F00A500FD
:100E600070B588B001AE0024347002AD1822284657
:100E7000214607F0D5F90120079006960648029012
:100E80002846214604F088FD002801D4019800E09E
:100E9000E043C0B208B070BD3F000101F0B5C9B079
:100EA000009301920F46064602A800210324224621
:100EB00007F0B6F903A80670B11E4A424A4102255E
:100EC000012E294600D01101012E02D0022E2FD171
:100ED0001025401C461839462A4607F09BF9009811
:100EE00070700198307043AF0026182238463146A2
:100EF00007F096F9489402A8479001202843801CE7
:100F0000469003A845900D4843903846314604F07A
:100F100043FD00280ED402A8007800280BD14E987B
:100F200002A94A788978090289180180304602E0CE
:100F3000472000E0FF2049B0F0BDC0463F0002015D
:100F4000F0B5CDB01D4605920F46064606A8002115
:100F50000324224607F064F907A887700680B91EAB
:100F60004A424A410226012F314600D01101012F89
:100F700002D0022F42D11026C01C4718569900916A
:100F80000494559C5499019153990291529903915B
:100F90000599324607F03EF9280A78703D700098AE
:100FA000B8717C71019838710298F8700398B87024
:100FB00047AF002518223846294607F031F9049832
:100FC0004C9006A84B9005203043401D4A9007A83E
:100FD00049900D4847903846294604F0DDFC00282A
:100FE0000ED406A8007800280BD1579806A94A7895
:100FF0008978090289180180284602E0472000E02C
:10100000FF204DB0F0BDC0463F000401F0B5C9B0AF
:101010001D4603AF7B713A717980388002A8019038
:1010200000240470B81D4E991A4607F0F3F843AE39
:1010300018223046214607F0F3F801204890019825
:101040004790A81D46904597064843903046214654
:1010500004F0A2FC002801D4029800E0E043C0B2F2
:1010600049B0F0BD3F000601F0B5C7B001AE308019
:101070006F4600243C7041AD18222846214607F0F7
:10108000CFF80120469045970220449043960F20C8
:101090004290074841902846214604F07DFC0028F4
:1010A00001D4009800E0E043C0B247B0F0BDC046B4
:1010B0003F000B01F0B5C7B001AE30806F46002491
:1010C0003C7041AD18222846214607F0A9F80120BE
:1010D0004690459702204490439607484190284601
:1010E000214604F059FC002801D4009800E0E043B8
:1010F000C0B247B0F0BDC0463F002501F0B5C9B051
:1011000003AF4E9DBD717B713A717980388002A822
:10111000019000240470F81D4F992A4607F07AF8D0
:1011200043AE18223046214607F07AF80120489055
:1011300001984790E81D46904597074843903046F0
:10114000214604F029FC002801D4029800E0E04385
:10115000C0B249B0F0BDC0463F002601F0B5C9B0ED
:101160000D4603AF7970387002A801900024047016
:10117000B81C11462A4607F04DF843AE18223046F7
:10118000214607F04DF80120489001984790A81C8F
:1011900046904597064843903046214604F0FCFBB4
:1011A000002801D4029800E0E043C0B249B0F0BD8D
:1011B0003F000C00F0B5C7B001AE717030706F46E3
:1011C00000243C7041AD18222846214607F028F83B
:1011D000012046904597022044904396064841904E
:1011E0002846214604F0D8FB002801D4009800E0EE
:1011F000E043C0B247B0F0BD3F000F0070B588B00B
:1012000001AE0024347002AD18222846214607F0B2
:1012100007F80120079006960648029028462146C6
:1012200004F0BAFB002801D4019800E0E043C0B20A
:1012300008B070BD03000300F0B5C7B001AE4C9C10
:10124000B47173713271718030806F4600243C70CC
:10125000F01D4D99062206F0DDFF4F98B0734E98B1
:10126000707341AD18222846214606F0D9FF0120AF
:10127000469045970F204490439607484190284652
:10128000214604F089FB002801D4009800E0E043E7
:10129000C0B247B0F0BDC04608000600F0B5C7B008
:1012A00001AE30706F4600243C70701C1F2206F0A7
:1012B000B1FF41AD18222846214606F0B1FF0120BA
:1012C00046904597202044904396074841902846F1
:1012D000214604F061FB002801D4009800E0E043BF
:1012E000C0B247B0F0BDC04608000800F0B5C7B0B6
:1012F00001AE30706F4600243C70701C1F2206F057
:1013000089FF41AD18222846214606F089FF0120B9
:1013100046904597202044904396074841902846A0
:10132000214604F039FB002801D4009800E0E04396
:10133000C0B247B0F0BDC04608000900F0B5C7B064
:1013400001AE30706F4600243C7041AD1822284633
:10135000214606F065FF012046904597449043964C
:10136000064841902846214604F016FB002801D487
:10137000009800E0E043C0B247B0F0BD08000A00AA
:101380000C48784406F05EFF0078411E88410E301C
:1013900007494A4650545018012141700921817073
:1013A0001322C270019804220260080306F03BF881
:1013B000900900007A030100F0B5CFB000920F460B
:1013C000044606F0EDFB392546AE284621463A464E
:1013D000334607F01FFF06F0E3FB00200490039064
:1013E0000290019001AC20461030202231460CF0D2
:1013F00017FA302234AB2846214601F027FE002898
:101400003CD1392019A934AA012301F019FE002882
:1014100034D101AE602130460CF012FA34A84821D4
:101420000CF00EFA2F200221315419AD2946393122
:1014300030233046324601F045FE00281ED101A877
:1014400030300F49794430224EAB01F02FFE002896
:1014500014D109354E98002801DC7F2000E05F2080
:10146000C04319A94A7A1F23134018184872302222
:10147000009829460CF0D4F94FB0F0BD05F0D3FF29
:10148000C4E10000F0B58BB016460F46044626486E
:101490004946085C1578002801D105F0E3F8681E7C
:1014A000C0B20A2834D2022C2DD2002F2BD1701CAE
:1014B00011990091109E01A92A46002A0DD00378A7
:1014C0001B0647783F04FB1887783F02DB19C77873
:1014D000DB1908C1001D521EEFE7144849460A18DF
:1014E000083201A82946FFF767FF002C14D01049E5
:1014F0007944002002460BF045FA30681021014380
:1015000031600BB0F0BDD520C001803005F08BFFFD
:10151000D520C00105F087FF04F062FC0099086047
:101520000920000305F07FFF1D01000024010000D9
:1015300078ED0000F0B5A1B017460E4604464C48C1
:101540004946085C1578002801D105F08BF8681E23
:101550000A2800D380E0022C79D20394012E76D899
:10156000781C27990291269904910FA92A46002AEE
:101570000DD003781B0644782404E31884782402F1
:101580001B19C4781B1908C1001D521EEFE7701EFD
:1015900041424141374C484606199527F15506F01E
:1015A000FFFAF05D002801D1064600E0753600968E
:1015B00021260FA919AF30462A463B4607F01AFEEE
:1015C000202205AB3046394601F040FD002841D1CC
:1015D00006F0E6FA48460119212005AA012301F088
:1015E0002FFD002836D105A828210CF029F919A8CB
:1015F00020210CF025F906F0D3FA1F484946085877
:1016000002694069009201901C480A1808190146B5
:101610004C3103F04DF80398002821D048460119B9
:101620004C310091164940183521164A7A44282336
:1016300006F02CFC14497944002002460BF0A2F974
:10164000049A106810210143116021B0F0BDD5202B
:10165000C001803005F0E7FED520C00105F0E3FEB3
:1016600004F0D0FB029908600920000305F0DBFEBE
:101670001D0100002401000090050000E8070000A3
:10168000BA060000AFCC0000DAEC000070B50246EC
:101690001F3200231C46202B16D07F2525401F2DEE
:1016A00007D0002D0AD1C57F3F262E4040360E7050
:1016B00006E00578F8262E40CE7701E01578CD5467
:1016C000521E641C5B1CE6E770BDD4D4F0B5ADB00F
:1016D00016461278002906D0012900D0CDE09400EA
:1016E000641C203401E09400641C9C4200D9C9E0D1
:1016F000531E0A2B67D208910690012800D9BCE03E
:101700003398029032980790371D0220C64313A8E1
:10171000114600290ED0BB5D1B06BC1965782D044F
:10172000EB18A47824021B193C781B1908C03F1D34
:10173000491EEEE759484B4619189520085C0028C9
:101740000593049101D0084675300090212513A916
:1017500025AB0393284607F04DFD09AC28460399B5
:10176000224600F0ADF82846214600F0B3F84C4878
:10177000059A105801694069009101904948121872
:10178000049801464C3102F093FF089800281ED0BF
:10179000B9194846414E84190934202720463A4653
:1017A0000CF042F825AD204629463A4601F0A2FC4D
:1017B000044609A828210CF043F8284639460CF0C5
:1017C0003FF8002C21D0D520C00105F02CFE25A823
:1017D00005901DAF3946FFF759FF812409AD20461A
:1017E00039462A4600F06CF82046294600F072F887
:1017F00020242E4E7E4438462146B04728212846D4
:10180000B04705982146B047244E069800283DD0A1
:10181000484681194C310091234C00193521244A46
:101820007A4428252B4606F031FB25A8082D06D042
:1018300049468919495D0170401C6D1EF6E725A8CF
:1018400000904846001935304E211A4A7A44202328
:1018500006F01CFB0898002802D01849794401E0E2
:1018600015497944002002460BF08CF8079A10685D
:101870001021014311602DB0F0BDD520C001803092
:1018800005F0D1FD6720000205F0CDFD04F0E4FA7B
:10189000029908600920000305F0C5FD240100003D
:1018A00090050000E8070000BA06000049C00000EB
:1018B000BBCA0000FBC800008AEB0000A8EB0000D8
:1018C00080B51346202201F0C1FB002800D180BD65
:1018D00005F0A9FD80B50A4605494B465918012374
:1018E00001F0AEFB002800D180BD05F09CFDC04694
:1018F00024010000A4B04E484946085C401E02285E
:101900006ED21D4614464B4F4846C11941208200F5
:101910008B5C0126304698438854032D5CD921788E
:10192000012959D16178012956D1A2781146213176
:10193000A94251D8472A4FD2029111461731069138
:10194000D11C05915B21414348460790C0194018BE
:10195000049060300390E11C08920BF061FF0020BE
:101960000399089A8854049B4C3305982118142233
:1019700018460BF055FF0698201808210AF07AFD4A
:1019800006912D4A07998B5819695B690A461A43D3
:1019900004D04140069843400B431DD108990846A6
:1019A0001F30205C012817D108462030205C012818
:1019B00012D11CAA20232046029901F065FB089948
:1019C0002231A94208D80298225C104643380628E2
:1019D00002D28818A84208D9D520C00105F023FDFD
:1019E000D520C001FB3805F01EFD0792089121208B
:1019F00012497944412509AB2A4601F02DFB002804
:101A0000ECD1079800900898231809A81CA9202257
:101A100001F00AFB0028DFD04846C019A900415C4C
:101A200040188121490046540920000305F0FBFCC1
:101A30001E010000240100009005000046DC0000AB
:101A4000A2B014463F494846401841218900425CF3
:101A50000126374697434754002B6ED006962678CA
:101A60000B2E6AD21D4631461C31581E80B281426F
:101A700063D8701C0390621C02921AAB2020059060
:101A800010461A46059B01F0FFFA5B207843494651
:101A900004912C4A89180F1801976037384602992B
:101AA00032460BF0C1FE0020039978540598B855D2
:101AB000019F38464C30611814220BF0B5FE3146B8
:101AC0001531204600F044F86C2178543146193124
:101AD000204600F03DF81C49049A52581169526999
:101AE0000B46069F7B40134302D04140114324D153
:101AF000212016497944412707AB3A4601F0ACFA58
:101B000000281CD1A81B1D3880B2009033191D334A
:101B100007A81AA9202201F087FA00280DD048460C
:101B200008494018B900415C401881214900069AD3
:101B300042540920000305F076FCD520C00105F0D1
:101B400072FCC046240100009005000085DB000007
:101B5000425C120640184178090489188278120202
:101B60008918C07808187047042B0BD101430BD19A
:101B7000104600F00FF806494A465050092000036D
:101B800005F051FC672000E06B20000205F04BFCE3
:101B90002001000001780906427812045118827869
:101BA00012028918C07808187047D4D4F0B5ADB0C7
:101BB0001478264619369E426CD21E2C6AD21F46D5
:101BC000154625AA20232846314601F05DFA21203A
:101BD0003E497944412212AB01F03EFA00285BD124
:101BE000B81B0090AB1912A825A9202201F01CFAFD
:101BF00000284FD03149484646186D1C30462946CA
:101C000022460BF011FE002737552D4811901096F3
:101C100004AE30460BF04CFFB08500043ED104AE5C
:101C2000304607F095FB0E9010A807F017FB07F061
:101C300085FBB04202D10E9807F08AFB039704A8F7
:101C4000808D002828D1339E2C194D461B482F1813
:101C500038464430142221460BF0E6FD607D0290A8
:101C6000E17DA27D207D174C039B2B5558243855D0
:101C70005837BA70F970029878703068411C31603A
:101C80001149691890220A543068421C32600B5482
:101C90002DB0F0BDD520C00105F0C5FB04A8878597
:101CA0000E9807F055FB4846044940181E210BF0DA
:101CB000B1FDD520C001FC3805F0B5FB940500004E
:101CC000FF0100001E01000090090000E8DA00009A
:101CD000F0B5A3B01D4614461BA820210BF09AFDB9
:101CE00008A84C210BF096FD032D00D8A9E0207820
:101CF000012800D0A5E06078012800D0A1E0A778F5
:101D0000384625300590A84200D99AE006951E2F46
:101D100000D396E038461B3003903D461735F81C3B
:101D200002904A48494604910E18E11C30463A4652
:101D30000BF076FD00200790F055029821183046F0
:101D4000443014220BF06CFD60194178C278807821
:101D5000635D582573555836B070F27071700398F2
:101D6000201808210AF086FB394A049B9B581A69FF
:101D70005B6915461D4303D042404B40134360D17D
:101D800038462330205C0228059D5AD1384624303D
:101D9000205C012855D11BAA20232046294601F0AA
:101DA00073F93E46263606998E424AD8655D284626
:101DB0004338062845D27019884242D82120274945
:101DC0007944412208AB01F047F900283BD1009546
:101DD000A31908A81BA9202201F026F9002830D059
:101DE000072F0DD0062F28D14846184940181C4906
:101DF000794406220BF02EFD00281ED101200AE0B6
:101E00004846124940181749794407220BF022FD31
:101E1000002812D1022029990E4A4B46985408688E
:101E2000421C0A600C4A9A18902313540868431CF9
:101E30000B600799115423B0F0BD06484946079A34
:101E40000A54D520C00105F0EEFAC0469405000002
:101E5000900500001E010000900900003BD9000021
:101E60004FC000003EC00000F0B58FB01F461546C1
:101E7000802800D18FE0002800D059E10391049020
:101E800007A800268672068108960796002F00D1C3
:101E90004AE1AE4C4846005D002801D004F0E2FB68
:101EA0004846022101552B78A94943540693581EF0
:101EB0000A2800D338E148464018041D6D1D7F1ED6
:101EC0000320C04305900598281806998E420AD22F
:101ED000B9B2032900D827E100F04EF901C42D1D45
:101EE000761C3F1FEFE70695B9B2032900D81BE126
:101EF0004C469749651800F03FF9E864954D601924
:101F00000121090201F0CCF8002800D00EE13F1FAA
:101F10000026009601964C4660190590914A7A4435
:101F20001A23314600F033F989482018C36C07ADF5
:101F30000B218D4A7A44284605F0A8FF28460BF06D
:101F40006FFE034600960196059831462A4600F03A
:101F50001EF98148201801F0C7F8069DF0B2B9B209
:101F6000814212D9285C01460839761C0629F5D32E
:101F700020385E28F2D97948494608187B497944C7
:101F800003220BF04DFC069D03E0744849460023F4
:101F90000B5404980399002900D0C9E0802805D18A
:101FA0006A484946085C022800D0C5E068494846AE
:101FB0004018C06CBFB2B84200D2B5E0002600960F
:101FC000019664484C46201831462A463B4600F0AC
:101FD000DEF80096019660482018314606952A469C
:101FE0003B4600F0D4F85A482018C16C0597C91B2D
:101FF0000491C164594FE0190BF012FE80B2FE2823
:1020000031D84946CA5DC919497809028918544A24
:102010009142069A30D03446F1B2059B994224D2BF
:10202000FF2822D8535C1E46083EF5B2062D01D388
:10203000002200E00122E4070AD1052D0BD84B460F
:10204000DB1920241C54069B5B5C1E46083E401C8A
:10205000F4B2062C03D34C46E4192354401C4E1C06
:102060001446069AD8E7069A33E0FF2827D849464F
:10207000C91900230B542CE04946C91901231B023E
:102080001E1A7308059C9C4200D31C4605940F1829
:102090000024374D7D44059884420BD20698035D99
:1020A000384631462A4605F0F1FE069ABF1CB61E98
:1020B000641CF0E7484626494018C06C0BE04846CF
:1020C000C019FC212E234354FC300021C1708370C1
:1020D00043701F490498002833D114980590202795
:1020E0004C4660182C30009001971A4820180126A1
:1020F000002531462B4600F04AF8019707A80090CA
:10210000154820183146069A2B4600F040F8194928
:10211000794428462A460AF035FC059A10681021B1
:10212000014311600FB0F0BDD520C00105F07BF96F
:102130006B20000205F077F9D520C001FB3805F0CF
:1021400072F90920000305F06EF9C0461C01000079
:1021500024010000E80700006C020000BA0600003D
:10216000307800001ED80000E5BE000085C10000E8
:1021700023C00000A8E30000017809064278120499
:102180005118827812028918C078081870471CB557
:1021900004460598019004980090204600F06EFFD8
:1021A000002803D1204600F063FF1CBD05F03BF979
:1021B000F8B5084352D11D4614462B484946085CE1
:1021C000002801D004F04EFA002D43D02178274B8F
:1021D0004A46D1544A1E0A2A3CD2069800904A46E2
:1021E000D218131D21346D1E1F22D243002912D094
:1021F000AEB2032E2ED9A65C3606A01847783F044F
:10220000BE1987783F02F619C078301801C3241D23
:10221000491E2D1FEAE7A8B23F281BD9A11848463E
:10222000124A851828462C30202632460BF0FCFA3C
:102230004C352846214632460BF0F6FA0C497944D3
:10224000002002460AF09EFB009A1068102101430C
:102250001160F8BDD520C00105F0E5F8D520C0011A
:10226000803005F0E0F8C0461C01000024010000A9
:1022700042E30000F0B587B01C4606920D460646C4
:1022800006F0D4FFAA2800D0F1E0802E00D1B2E001
:10229000002E00D0E3E0002C00D1DCE00495082CF7
:1022A00033D30698007801282FD1069840786F28FC
:1022B0002BD106988078722827D10698C07861289B
:1022C00023D10698007963281FD1069840796C289D
:1022D0001BD106988079652817D10698C579083CE6
:1022E000A0B2A84200D2CEE0522D00D3CFE0069F8C
:1022F00008376A4849460818BE30512239460BF063
:1023000069FC641B7F19069707E06D48784405F067
:1023100099FFC078002800D0ACE0614D4846405D90
:10232000002801D004F09EF905964A46012003904A
:102330005055069800785B495054421E0A2A00D333
:1023400089E0641E00221346069DAD18834214D214
:10235000A6B2032E7FD9AE7836046F783F06F61901
:10236000EF783F02F6192D7975194E467618B61892
:102370007560121D5B1C241FE6E74B4849460A188E
:10238000C3200026165449480818039F87770096F3
:1023900047480818474BC9184A4B7B4401F052FD87
:1023A000681C0690E85700281DD4C0B20390401E58
:1023B000012865D80096019648463E4FC019012372
:1023C0003146069A00F05AFE002857D14E46F019C1
:1023D00000F04EFE364830183C21039A4254A81CA7
:1023E0000690641E05E04846314940183C21C02251
:1023F0004254059E049D002D31D1802E04D12848E1
:102400004946085C01282ED129484946095C002923
:1024100029D02A494A465158097EC91F4B424B418F
:102420001018A2B2069901F087FD012804D00228F5
:1024300009D1002003F05CFF0C98016810220A43C8
:10244000026007B0F0BD032805D0002803D10920A1
:10245000000304F0E8FF0F48FE3004F0E4FF0E48EC
:102460007E3004F0E0FF0B48C01C04F0DCFF09489C
:1024700004F0D9FF04F044F90748401C04F0D3FFEE
:102480000D4804F0D0FF0348FF3004F0CCFF0248B1
:1024900004F0C9FF82690000826A0000BA060000E9
:1024A0001C010000240100006C02000094050000E3
:1024B0002C020000E8070000016500009005000004
:1024C000F0F30000173B0000F0B59FB016460F4632
:1024D0000446157804F0C6F8681E0A285FD2022C5C
:1024E00058D2002F56D1701C25990291249F0DA916
:1024F0002A46002A0DD003781B0646783604F318C6
:10250000867836029B19C6789B1908C1001D521E99
:10251000EFE705F045FB0DA817AE2946324605F05A
:102520001BFF5120202203AB314600F08FFD002815
:1025300033D105F035FB204E48468119512003AABE
:1025400001252B4600F07CFD002826D103A8282178
:102550000BF076F917A820210BF072F905F020FB9B
:10256000002C20D0484681190931009113494018A8
:102570002902134A7A44202305F088FC1149794442
:10258000002002460AF0FEF9386810210143396044
:102590001FB0F0BDD520C001803004F044FFD5202D
:1025A000C00104F040FF04F04BF8029908600920D4
:1025B000000304F038FFC04624010000BA06000002
:1025C00063BB00007AE3000082B01E461546044655
:1025D00035484946085C002801D004F043F8601EE5
:1025E00005282DD25420B04254D1002C019406D19C
:1025F0000020142828D0295C401C0029F9D0012C87
:1026000022D0B520C7430026284C002F14D04846BE
:102610000019811981204000095C002909D0494630
:102620000919C9190818142229460BF013F90028B2
:102630000BD05B37761CE8E7D520C00104F0F3FE31
:10264000002C2BD13420CEE70226194C4846001925
:10265000E4302946143120220BF0E6F8019F002FC8
:1026600009D04846001941218900401834352022FC
:1026700029460BF0D9F80F48494601220A54081997
:10268000FF2126314754492189004654092000037F
:1026900004F0C9FE6720000204F0C5FED520C00189
:1026A000803004F0C0FEC0461C0100002401000080
:1026B000940500001F010000F0B5C1B0149314464A
:1026C0000F460546F4484946085C1678002801D0B4
:1026D00003F0C8FF701E0A2800D374E2281F0123EC
:1026E00002280CD3032D1CD00022022D129208D0F8
:1026F000012D00D06BE211970022129214E02122EA
:102700001293052D01D06D2000E0A120B1004018EA
:1027100080181499884200D05EE2002001211390B5
:102720000EE01197212212935000B1000818893051
:102730000021149FB84213930846119F00D04BE22A
:10274000069007910F9504931192002F00D03EE25E
:1027500046980990D149484646544018071D01251E
:102760000396E9B2002E06D0204600F057FA01C7C2
:10277000761E2D1DF5E763181498421A2046194657
:102780000BF052F80F9B581F41424141C44A484642
:10279000801880220D928154052B119E11D148463C
:1027A000BF4945182846A130A71939466C31202267
:1027B0000BF03AF8C1358C371422284639460BF015
:1027C00033F8129FE019109000F034FA01210A91B9
:1027D0004F40000605D0002F03D12178012900D0F9
:1027E000F1E1002805D1109803F0FAFF002800D18C
:1027F000E9E11398002818D0A0191299451834352A
:10280000284600F017FAC1B24A424A413A4304D17D
:102810005521615C012900D0D5E1000605D128468B
:1028200003F0DEFF002800D1CDE105F0B9F9002169
:10283000129F002F0A4600D022784846E94BC31861
:1028400001910293002F01D1394601E02146353133
:102850000091E549401810990B461433089305F090
:102860000BFF1398002814D0A019C51905F098F98A
:102870000020002F024601D05521625C34354946C4
:10288000D84BCB18203301900293002F0ED138463D
:102890000EE04846D34D40192030A1193431202292
:1028A0000AF0C2FF5420304306460EE020468A302C
:1028B0000090CD4808182B461433294605F0DCFE5D
:1028C0004820304336182036C64D4846411940311D
:1028D00028AF384605F0D2FC0B2000900025C549F2
:1028E000794438462A462B461491884704200090A4
:1028F0000F98052801D0079A00E0022205280C95C0
:1029000000D0069D38462B46149988470796F6B2A4
:10291000B94A7A440F9220463146904702463846DB
:102920000E971F2700970C9D2B4614998847311D41
:1029300020460F9A90470246069700970E982B461E
:10294000149DA8473146083120460F9FB84705908F
:1029500031460C312046B84702463F200F90009088
:102960000E98059BA847139800280ED031461031C9
:10297000204600F053F9054614362046314600F053
:102980004DF92B460246182702E010270C9A1346F1
:1029900025460F98009028AE30461499884707982E
:1029A000C019C4B22846214600F038F902460698FC
:1029B00000902F46002530462B4614998847211D4C
:1029C0000B97384600F02AF9024616200090304650
:1029D0002B46149988474846824E80190D99405CD1
:1029E000002821D04846804940180A99090200F081
:1029F00057FB002800D0EDE0009548468619314687
:102A0000C131142228462B4600F020F920220092E2
:102A10003146A13133466033012000F017F96020C0
:102A2000315C03220A403254139800283AD070488F
:102A300049460D181495353505F0B2F800951198F2
:102A40000B9F3D1834352C1822463C328C37109899
:102A500008993B4605F0C6FC149E843605F0A0F8A4
:102A600000961298281801461431443422463B46F9
:102A700005F0B8FC482011990843091820310B983B
:102A800000F0CCF803463521624A7A44149805F0E8
:102A9000FDF96149794488E01C010000240100002F
:102AA0009405000048464E49451805F079F8281D60
:102AB00039AD03992A4605F04FFC512020222FAB57
:102AC000294600F0C3FA00280B9C00D082E005F0F4
:102AD00067F8512015A92FAA049B00F0B1FA00282D
:102AE00078D12FA8282114910AF0AAFE39A820260F
:102AF00031460AF0A5FE1198251805F051F82F4629
:102B0000343715A80930394632460AF0A3FE13902F
:102B10003648494612910E1805F042F800965C3589
:102B200023468C33109808992A4605F05BFC542004
:102B300011990843011D204600F070F803462C4906
:102B4000129840180A990C0200192C4A7A441499D8
:102B500005F09CF9139800281AD04E4621483018E9
:102B600014908130202539462A460AF05DFE0097F0
:102B70001F483018244A7A4421462B4605F086F92E
:102B80000D981499085C00280DD0214979440CE077
:102B90004846144940180D99405C0028099C0FD004
:102BA0001849794402E019497944099C00200246F9
:102BB00009F0E8FE206810210143216041B0F0BD1A
:102BC0000F497944F2E7D520C00104F02CFCD52050
:102BD000C001803004F027FC6720000204F023FCD1
:102BE0002401000094050000E80700006C020000CA
:102BF000BA060000DD59000007030000F8B100002C
:102C0000F6DF00005AE0000061B50000F0DF0000D0
:102C100048E00000BAB2000070DF0000425C12061B
:102C20004018417809048918827812028918C078FE
:102C3000081870470021142905D0425C491C002A5D
:102C4000F9D00020704701207047D4D4BCB5144699
:102C50000A460146069800930190074D48464019E0
:102C6000234600F00BFA002804D14846401900F032
:102C7000FFF9BCBD04F0D7FBE8070000F0B5A7B032
:102C800015460F4606463F4A4946895C2C7800297E
:102C900003D0019303F0E6FC019B611E0A2963D275
:102CA000374365D1A0002130984266D12C9801901D
:102CB0003549484644544018001D01212246CBB2F4
:102CC000E918002A0DD0EF5C3F064E783604F6195D
:102CD0008F783F02F619C978711802C0521E191D6B
:102CE000EDE72A4F4E46F019203020252A460AF0FB
:102CF0009BFD2548361804F053FF301D1FAE2146BA
:102D0000324605F029FB512002AB31462A4600F03D
:102D10009DF9002833D104F043FF51200CA902AAE9
:102D2000012300F08DF9002829D102A828210AF0FA
:102D300087FD1FA8202421460AF082FD04F030FF01
:102D40004846C0190CA9093122460AF069FD10490C
:102D500079440020024609F015FE019A10681021FE
:102D60000143116027B0F0BDD520C00104F05BFB2A
:102D7000D520C001803004F056FB6720000204F02B
:102D800052FBC0461C010000240100009405000015
:102D900080DF0000FEB50191064600200E4D7D4407
:102DA000029004460D34822C13D0281805F04AFAFC
:102DB00007460C210AF0B2FF0246384631460AF0B7
:102DC00063FF00282046EDD1387B0199087001206F
:102DD000FEBD0298FEBDC046B9C90000FEB50C4656
:102DE00083214900884238D081214900884251D04E
:102DF000FF210A46043290425AD04122920090426A
:102E00005FD00A460632904277D00231884200D025
:102E1000B0E0E5680026724F7F44042E00D180E0C8
:102E2000386805F00FFA017842781202511882785A
:102E3000C078000280180004401861690A784B7855
:102E40001B029A188B78C9780902C91809048918D5
:102E5000884265D03F1D761CDFE726462036307855
:102E6000E569012800D195E0002800D082E0606A81
:102E7000A26A614979440AF0ADFE2D202A5C2878C7
:102E8000E16A6423009101932B46012800D194E06C
:102E9000223393E0A068017803293ED021690429F8
:102EA0003BD1E168401C20220AF0BEFC042035E042
:102EB0000420A0774948A08360680068A530E060DE
:102EC000FEBDE168002916D0A5682E4621361431D2
:102ED0000C2230460AF07EFE2878811E022903D398
:102EE000012872D0002806D12D3530462946FFF73B
:102EF00051FF00286ED106206DE0A568E0682269C8
:102F0000394979440AF066FE2878022833D3801EB6
:102F1000012836D8364979442FE000202075FEBDBF
:102F20002E70A06800684221622906D0425C491CCC
:102F3000002AF9D0287803281AD1042E18D028782E
:102F400028497944095CA2698A4211D103280DD12C
:102F50006D1C202128460AF05DFCA06801686220F3
:102F60000A5CA81A203042310AF05EFC042000E01E
:102F700000206070FEBD1D4979446069A2690AF0B5
:102F800029FE6069A2691B4979440AF0EFFD04201B
:102F90002077FEBD606AA26A184979440AF01AFED9
:102FA000E06A226B164979440AF014FEE06A226B4B
:102FB000223529460AF0DAFD04E02133681C20217D
:102FC00009F0D7FA04203075FEBDE0682021405C8E
:102FD0002D21685404206075FEBDC0460202000029
:102FE00004CC000092C80000EAB00000F3AF00007B
:102FF00025B3000034B1000005B0000057B0000058
:10300000CFB0000003B401487DE000000B000000D9
:1030100003B4014877E000000C00000003B401484D
:1030200071E000001500000003B401486BE00000EF
:103030001600000003B4014865E00000170000001E
:1030400003B401485FE000001B00000003B4014826
:1030500059E000001C00000003B4014853E00000E8
:103060001D00000003B401484DE000001E000000F8
:1030700003B4014847E000002F00000003B40148FA
:1030800041E000003200000003B401483BE00000D2
:103090003300000003B4014835E0000034000000B4
:1030A00003B401482FE000004400000003B40148CD
:1030B00029E000004700000003B4014823E00000BD
:1030C0004B00000003B401481DE000004D0000006B
:1030D00003B4014817E000005800000003B40148A1
:1030E00011E000005C00000003B401480BE00000A8
:1030F0005F00000003B4014805E00000700000001C
:1031000003B40248FFE702490847000071000000CD
:1031100001002100F8B50C468321490088421FD0E8
:103120008121490088421FD0FF210A460432904283
:103130001ED041229200904227D00A460632904289
:1031400026D0023188420ED14D4849460818A73092
:10315000E5685B2100F0A0F800283CD000206CE07E
:10316000204600F075F9F8BD204600F0A1F8F8BD42
:10317000A0686C21415C022920D1042060770020E6
:10318000E06020616068006864E004206075F8BD5C
:1031900004202077A568E06822693B4979440AF059
:1031A00019FD6C20285C022838D001283BD000286B
:1031B00040D16069A2693549794438E00022226132
:1031C000606800680346A533E360002940D0012908
:1031D0004ED105213DE06B3500262A4F7F44032E5A
:1031E0002AD0386805F02EF801784278120251187A
:1031F0008278C078000280180004401861690A785B
:103200004B781B029A188B78C9780902C9180904EF
:103210008918884213D03F1D761CE0E76069A269D7
:103220001C49794403E06069A269194979440AF0AC
:10323000D1FCF8BD002016E006206070F8BD042027
:1032400060706E70F0B2411E022913D2002015E0AA
:10325000032161774230212100F01EF8002804D0BC
:103260000420A07702202077F8BD0020A077F8BDC9
:10327000A277F8BD002800D070E708202870F8BDBC
:103280002401000010C60000D6AD000013AC000001
:1032900068AF000039AF0000002907D0421C491E6A
:1032A000007800281046F7D00020704701207047B2
:1032B000F0B589B00325057584686C21615C2746EB
:1032C0005837002913D0022921D001291CD1F97CBB
:1032D00000292DD0072935D0042942D001296AD1EF
:1032E000C1681422204601F055FD042062E0F97CFB
:1032F00009291FD0082907D10921F974C1681422AE
:10330000204601F047FD56E00021017553E0F97CAD
:1033100007292ED0012947D002294ED0032954D0A5
:10332000042962D005296BD0062970D0002942D12A
:1033300001203FE0C068C07F0A21F974411E884126
:10334000B87438E0C1686D4620262846324601F040
:103350002AFD383428463146224609F075F80A20FD
:1033600028E0C16814342022204601F01CFD07200B
:1033700020E0C1682546143520262846324601F053
:1033800012FD6A4628463146154609F05DF8383484
:1033900020462946224607F05CFE3889401E3881C7
:1033A000000429D10A2026E0C1681422204601F039
:1033B000F1FC0220F87409B0F0BDC06800F03CF8E0
:1033C0000521F974001DE065F5E7E16D0269203221
:1033D0008A42F0D9C068C17F807F0422FA7400223B
:1033E0003A82000240183880E5E73888401E38806D
:1033F000000401D10620F874388A401C3882DAE7CC
:10340000C06800F019F8FD74001D6066D3E7616EB6
:10341000026920328A42CED9C068C17F807F0722EC
:10342000FA7400223A820002401838813834202190
:1034300020460AF005FABEE7017F0906427F120422
:103440005118827F12028918C07F08187047D4D49F
:10345000F0B58FB00446342004212154E5696C2076
:10346000295C204620302F466837022910D00129D8
:1034700016D0002924D10178022924D001293AD07C
:1034800000291DD1B878002876D04949794475E0E3
:10349000017803293CD0012928D0022909D112E062
:1034A000017804294CD0012920D002290BD003290E
:1034B00054D0002904D1606AA26A3F4979445FE090
:1034C000002101756CE0606AA26A3E4979440AF005
:1034D00081FB34484B46185805694669A068E16A83
:1034E000226B00950196304C1B1957E0606AA26A66
:1034F0003549794403E0606AA26A2E4979440AF0AA
:1035000069FBE06A226BA16814310AF063FB47E0B3
:10351000606AA26A2D4979440AF05CFB38350A21B9
:1035200003AE30232846324607F084FFE06A216B61
:103530003A880092264A7A44334604F0A7FC2FE0EA
:10354000606AA26A1E4979440AF044FBE26A236B6E
:1035500038350A21284607F06DFF21E0606AA26A2B
:10356000164979440AF036FBE26A236B14352021B0
:10357000284608F093FF13E00C497944606AA26A78
:103580000AF028FB07484B46185806694069E16A6B
:10359000226B0096019004481B18284601F04EF952
:1035A0000FB0F0BD90050000E807000068AD000016
:1035B0002FAE000084A900000AAA0000DEAC0000C3
:1035C000CEAB0000F8AC0000B7AA000021AA0000B2
:1035D000BDA90000F8B50090451C0E270D487844A1
:1035E0007F1E14D00446233404F02CFE06460F3010
:1035F000142229460AF02EF900282046F0D100981E
:1036000044300F2231460AF0E5FA0120F8BD0020CF
:10361000F8BDC0461AC2000009484946095C0120AD
:10362000002909D007494A465118FF222632895CF1
:10363000042902D8032900D0704700207047C046F3
:103640001F01000094050000FEB50C4683214900CF
:1036500088425FD08121490088427FD0FF210A46FD
:103660000432904218D041229200904225D00A465E
:10367000063290423FD00231884200D0C7E0A068B5
:10368000E36800684221622973D0425C491C002A29
:10369000F9D000206070FEBDA0680178012900D13A
:1036A0008EE0002900D0B2E00421A177012121772A
:1036B000411C16306061A16186E0E16800297CD080
:1036C000A5682E46423600207070284636301431E8
:1036D0000C220AF07FFAE0682021405C30702878E4
:1036E000012806D12846FFF775FF002801D00120E8
:1036F0007070042062E0E0682269594979440AF058
:1037000069FA6069A269574979440AF063FA0420AA
:103710002077FEBD264620363078E5692F464237B1
:10372000012856D0002872D1606AA26A4E497944B5
:103730000AF050FA284616300021202968D0425C51
:10374000491CFF2AF9D03A78E16A64230091019379
:10375000363520212B4608F00CFF78E02169A0685F
:10376000242946D004294BD1E168401C0C31142295
:1037700042E002930025394F7F442E46022E45D069
:10378000386804F05FFD017842781202511882789F
:10379000C078000280180004401861690A784B78EC
:1037A0001B029A188B78C9780902C918090489186C
:1037B000884228D03F1D761CE0E706206075FEBDDC
:1037C0000420A0772448A08360680068A530E060EA
:1037D000FEBD606AA26A7978002926D0234979441F
:1037E0000AF0F8F9E06A226B443529460AF0F2F94A
:1037F0002DE0E168163020220AF016F8042000E0DF
:1038000000202075FEBD0298067004256570FEBD7F
:10381000E06A226B174979440AF0DCF9E06A226B0E
:10382000363529460AF0A2F911E0114979440AF027
:10383000D1F908484946085807694069E16A226B8E
:1038400023681B6800970190681C00F0F7FF0420B4
:103850003075FEBD90050000020200008CC2000021
:10386000F0A800003FA600004BA7000013A800002E
:1038700071A90000A3A70000F8B50C4683214900F8
:1038800088421FD08121490088421FD0FF210A466B
:10389000043290421ED04122920090423AD00A4611
:1038A0000632904239D0023188420ED1474849460B
:1038B0000818A730E5685B2100F092F8002848D08E
:1038C00000206AE0204600F003F9F8BD204600F031
:1038D00093F8F8BD002525616068A168006802467C
:1038E000A532E26036228E5CB21E05270421032A2F
:1038F00005D3002E03D0012E0AD1042703216177BE
:103900004230212100F06CF8002854D1012E51D111
:10391000A577F8BD04206075F8BD04202077A56860
:10392000E06822692B4979440AF054F93620285C72
:10393000811E032904D26069A2692849794405E0FF
:10394000012835D86069A269234979440AF042F90F
:10395000F8BD353500261E4F7F44052E1CD0386833
:1039600004F070FC01784278120251188278C07815
:10397000000280180004401861690A784B781B0225
:103980009A188B78C9780902C918090489188842DD
:1039900005D03F1D761CE0E706206070F8BD0420CE
:1039A00060706E70F1B28A1E032A09D200200AE00C
:1039B000002003E067770420A07702202077F8BD7D
:1039C000012900D97CE72870F8BDC0462401000019
:1039D0007CC000004CA6000081A4000058A8000094
:1039E000002907D0421C491E007800281046F7D055
:1039F0000020704701207047B0B503250575816828
:103A000036228A5C931E022B14D3042A25D00C463E
:103A10003434012A10D0002A1CD16278032A20D025
:103A2000042A17D1C36814220846194601F0B2F9D6
:103A30006570B0BD012211E06278052A1BD0042A0E
:103A400008D105226270C36814220846194601F0A5
:103A5000A1F9B0BD00210175B0BD002200F013F83E
:103A6000B0BDC368143120220846194601F09BF905
:103A700006206070B0BD06216170C068C07F411E25
:103A800088412070B0BD10B53523CB5C0C46353471
:103A9000032B05D0012B0CD0002B13D101200FE0FC
:103AA000C368143120220846194601F07CF906202B
:103AB00006E0C36814220846194601F06BF903209A
:103AC000207010BD002A01D00021017510BDD4D492
:103AD0007CB50446342004212154E5693620295C54
:103AE0008A1E20462030032A0DD20178032941D0B6
:103AF00001294DD002292AD0002925D1606AA26A65
:103B0000404979445FE001290FD000291CD1017898
:103B100003292FD0012945D0022918D0002913D11B
:103B2000606AA26A324979444DE0017802290ED0D8
:103B3000012932D0002907D12846343000780028E6
:103B40003DD02E4979443CE0002101757CBD606A7E
:103B5000A26A2E4979440AF03DF823484B4618588A
:103B600005694669A068E16A226B009501961F4CC1
:103B70001B1936E0606AA26A254979440AF02AF8DE
:103B8000E26A236B14352021284608F087FC7CBDAF
:103B9000606AA26A1C49794408E0606AA26A18490E
:103BA000794403E0606AA26A124979440AF012F883
:103BB000E06A226BA16814310AF00CF87CBD0E4952
:103BC0007944606AA26A0AF005F807484B4618581B
:103BD00006694069E16A226B0096019003481B1850
:103BE000284600F02BFE7CBD90050000E807000091
:103BF00095A700001FA3000022A7000077A70000E0
:103C0000E0A20000C4A3000013A4000070A60000FE
:103C1000C6A60000F0B595B00C4683214900884245
:103C20001ED081214900884239D0FF210A46043242
:103C3000904254D00A460632904259D0023188420E
:103C400000D0B9E0A068E5680168A53178487844FB
:103C5000142209F0FFFD002859D00020607059E0BF
:103C6000264620363078012859D0002800D0A3E01D
:103C700069484F463D58606AA26A7049794409F024
:103C8000A9FF664838186221415CE26A6423009209
:103C90000193423012222B4608F06BFC4BE0206966
:103CA000001F0521C84101460A39032900D281E0DD
:103CB000A568002842D0092842D0022842D0032813
:103CC00078D0042841D0052841D0062845D00728BF
:103CD00060D0082872D001286ED1E0205BE0A06897
:103CE0000078002818D00420A0774D48A08363E016
:103CF000E06822694F49794409F06CFF6069A26964
:103D00004D49794409F066FF0420207754E00420EF
:103D10006070012028704FE00620A0774CE0E56934
:103D2000606AA26A4649794409F054FFE06A226B4E
:103D3000691C09F04FFF042030753DE080202AE027
:103D4000602028E00920400125E0302023E0E168E0
:103D5000681C302209F064FD2CE0E168284621301F
:103D6000102209F05DFD2C48494608580169406958
:103D700022681368009101906D1C09AE3027284617
:103D800031463A4600F05AFD284631463A4609F097
:103D900021FF0FE02020E1680A7F12064B7F1B0401
:103DA0009A188B7F1B02D218C97F5118814201D00B
:103DB000002028700420207515B0F0BDE12000011E
:103DC00006901848059018484946085817498842EF
:103DD00002D300212970217500270897079005A8B4
:103DE000042109AE02913246FDF7E6FA3021202384
:103DF000049330463246FFF747F903973770E1687E
:103E00003046049A09F026FD002802D00398287055
:103E1000D1E70298CFE7C046900500006C02000091
:103E2000020200005D3000002001000001000100DE
:103E30009ABD0000E2A100005FA50000FDA1000006
:103E400068A10000F8B51D4616460C4607464021FD
:103E500009F0E0FC7E637C600698B8633D63012056
:103E6000387001022046FFF71BF9002800D1F8BD89
:103E700003F0D9FA1CB5826A002A19D0436A19786E
:103E800001AC2170521E5B1C43628262427C002A9C
:103E900005D0C268521CC260827C002A06D14068EC
:103EA00001AC0122214600F006F8217808461CBD2D
:103EB000012003F0B8FA1CB513460A460446002157
:103EC00000910191FFF7DAF8002803D12046FFF7AF
:103ED000CFF81CBD03F0A7FAB0B50546806A904242
:103EE00027D31446002905D06A6A0846114622469F
:103EF00009F09AFC687C002809D0A87C002806D02C
:103F0000686A00196862A86A001BA8620DE0696A05
:103F100068682246FFF7CFFF686A00196862A86ADE
:103F2000001BA862687C002802D0E8680019E860DD
:103F3000B0BD012003F077FAF0B58DB000931646BE
:103F40000F46044601AD284609F0B2FDA8850004DD
:103F500007D001A8002181850B9805F0F9F9032409
:103F60000BE001A805F0F4F96762A6620099E1622E
:103F70000B90204600F012F8044605F0DFF901A985
:103F8000884202D10B9805F0E3F901A8808D002842
:103F900002D120460DB0F0BD03F045FAFEB504464F
:103FA00005461035083000902746183726463C361F
:103FB000307801280FD0022809D0C0280FD12178ED
:103FC0000220092900D191E00C2908D100E12078D4
:103FD0000C2804D1F5E020780B2800D1F1E0A06A8C
:103FE000002800D1EBE0607C002833D0216B002951
:103FF00006D020468847002802D00128D8D0E2E029
:1040000031780320012954D002293CD0C02900D0A6
:10401000DEE021780A460A3A022A00D2A0E0092905
:1040200000D1A9E0022900D182E0032900D183E078
:10403000042900D184E0052900D185E0062900D1BA
:1040400086E0072900D187E0082945D1204600F005
:10405000DFF9ADE70120002800D1B0E02046FFF7EE
:1040600009FF216A4A1C226261180876216A01AAA6
:10407000384600F059FA00283CD1206A052800D1C2
:10408000A5E0A06AE7E721780B2971D002294FD07B
:10409000032969D004294FD0052961D006294FD0C2
:1040A000072951D0082953D0092955D00A2913D1FD
:1040B000CCE721780A295BD0022939D0032953D0D3
:1040C000042939D005293BD006293DD007293FD006
:1040D000082941D00929B9D0012979D1204600F019
:1040E000ABF82C20205CC00765D061E7A16A0029ED
:1040F0006FD078E701A80078002868D002AA384677
:1041000000992B4600F02EFA002860D0002002997A
:104110000029014606D1616A491E6162A16A491CF3
:10412000A16201212062E060A174012060745DE75A
:10413000204600F090F83BE7204600F0ADF837E766
:10414000204600F0CEF833E7204600F0EFF82FE7E6
:10415000204600F011F92BE7204600F033F927E75D
:10416000204600F07EF923E7204600F099F91FE78A
:10417000204600F0BAF91BE7287800282ED1A16864
:10418000E06881420FD9091AA26A8A4200D30A461E
:10419000082A00D30822616B0918BA312046FFF7BC
:1041A0009BFEA168E068884200D001E7606BC222F4
:1041B0008154002060742078401C2070F8E60020B4
:1041C000FEBD0220FEBD022801D10120FEBD03205C
:1041D000FEBD616BC22200238B54FEBD012003F0A3
:1041E00022F9B0B58CB004466D46284609F060FC53
:1041F000A885000407D06846002181850A9805F04B
:10420000A7F8032407E0684605F0A2F80A902046C4
:10421000FFF7C4FE044605F091F86946884202D1D2
:104220000A9805F095F86846808D002802D120464E
:104230000CB0B0BD03F0F7F880B5017C002907D0C1
:1042400000214174816841610178491C017080BD81
:10425000012003F0E8F810B50446007C002818D1CE
:10426000A068212815D2E16888420AD9401AA26ABA
:10427000824200D3024600212046FFF72DFEA068AF
:10428000E168814204D1002060742078401C2070D5
:1042900010BD012003F0C7F810B50446007C0028CB
:1042A0001CD1A068212819D2E16888420BD9401A94
:1042B000A26A824200D30246616B63312046FFF757
:1042C0000BFEA068E168814207D1616B83228854AC
:1042D000002060742078401C207010BD012003F085
:1042E000A2F810B50446007C00281CD1A068212843
:1042F00019D2E26890420BD9616B8918801AA26AC0
:10430000824200D302462046FFF7E6FDA068E2683D
:10431000824207D1616B202288540020607420788B
:10432000401C207010BD012003F07DF810B504463C
:10433000007C00281DD1A06821281AD2E16888429B
:104340000CD9401AA26A824200D30246606B41181F
:1043500021312046FFF7C0FDA068E168814207D106
:10436000616B41228854002060742078401C2070CA
:1043700010BD012003F057F810B50446007C00285A
:104380001DD1A06815281AD2E16888420CD9401ABC
:10439000A26A824200D30246606B4118A5312046D2
:1043A000FFF79AFDA068E168814207D1616BB922ED
:1043B0008854002060742078401C207010BD0120BB
:1043C00003F031F810B50446007C00281DD1A06828
:1043D00021281AD2E16888420CD9401AA26A824286
:1043E00000D30246606B411842312046FFF774FD4E
:1043F000A068E168814207D1616B62228854002085
:1044000060742078401C207010BD012003F00BF870
:1044100010B50446007C002820D1A068E1688842DD
:1044200014D9401AA26A824200D30246012A07D157
:10443000606A0078002803D1606BC32100234354D5
:1044400000212046FFF748FDA068E168814204D1C1
:10445000002060742078401C207010BD012002F004
:10446000E2FF10B50446007C002816D1A068E16880
:1044700088420AD9401AA26A824200D30246002129
:104480002046FFF729FDA068E168814204D10020A1
:1044900060742078401C207010BD012002F0C3FF22
:1044A00010B50446007C00281CD1A068212819D230
:1044B000E16888420BD9401AA26A824200D30246C0
:1044C000616B84312046FFF707FDA068E1688142F7
:1044D00007D1616BA4228854002060742078401CAE
:1044E000207010BD012002F09EFF10B50446007C34
:1044F000002816D0A068E16888420AD9401AA26A4A
:10450000824200D3024600212046FFF7E5FCA06866
:10451000E168814204D1002060742078401C207042
:1045200010BD012002F07FFF0078C308172B16D3BF
:10453000BF2806D80346B63B8B4208D8BC280AD20F
:104540000DE0F8280BD30346F63B8B4201D900203F
:104550007047FC2803D30020107001207047012011
:1045600010707047B0B50446007840B2002805D4FA
:1045700000201060187001200860B0BDC5B2B72DD2
:1045800007D801201060227800241C70803A0A604D
:10459000B0BDBF2D0ED800201870B63D1560227832
:1045A000BB2A1DD0B92A25D0BA2A28D0B82AEFD1E3
:1045B00060782BE00120F72D04D810602278187065
:1045C000C03AE4E71870F63D15602278FB2A20D047
:1045D000F92A28D0FA2A2BD0F82A31D16278D6E7E6
:1045E00060780006A27812041018E278120280188F
:1045F00022790AE0A07862781202101806E060784A
:104600000004A27812021018E278801808600120D5
:10461000B0BD62781206A3781B049A18E3781B02D7
:10462000D21823790AE0A27863781B029A18AEE7C1
:1046300062781204A3781B029A18E378D218A6E7CE
:104640000020B0BDF0B589B015460C4606461046B0
:1046500000F010F80936402201AF284631463B46AB
:1046600000F012F80C3714222046394609F0D8F829
:1046700009B0F0BD80B501210902FEF711FD002847
:1046800000D180BD02F0CFFEBCB515460A460446F7
:10469000202000930190012120462B46FEF7EEFCDE
:1046A000002803D12046FEF7E3FCBCBD02F0BBFEB0
:1046B000F0B58BB014460D4606461046FFF7DAFFFC
:1046C0000936402203AF204631463B46FFF7DCFF68
:1046D00011980190109800900C37384629462246D0
:1046E00000F002F80BB0F0BDF0B591B0029203916A
:1046F0000546012616980146B1431E224A401799E5
:104700000A430024002A224616D104AA0192332724
:104710003B4600F057F80198394609F0FFFA019935
:104720000B183A1A25497944184609F01FFA0198DE
:10473000394609F0F3FA024604A801928018204F86
:104740007F44142C0AD0295D0F220A40BA5C4270C3
:104750000909795C0170801C641CF2E7029C204608
:10476000FFF788FF019A283204A920460B46FFF77D
:104770008BFF002028281BD0024632404308E95C0A
:10478000002A02D00F24214000E00909092901D89C
:10479000795C09E004ACE35C920004245440E340FB
:1047A0001A07795C00D52039039A1154401CE1E7BF
:1047B00028200021039A115411B0F0BDDD990000AA
:1047C0009E990000F0B587B001930B460546002482
:1047D0000292E7B2781C0199884229D20A220392F8
:1047E0000026284619460693334608F0CDFE05906C
:1047F0000491039A334608F0E7FE281A302101435A
:10480000029AD155641C0920401B30460699884104
:10481000059D049BDDD3E0B21654BE4206D2D05DA6
:10482000915DD15590557F1E761CF6E707B0F0BD1F
:10483000014802F0F8FDC04602650000BCB52A2A16
:1048400006D80A4B7B440846194609F0C3F9BCBD9B
:10485000079A069C78254D7030250D7000940192C2
:10486000891C1A46FFF740FFBCBDC046AB9800004C
:10487000F8B501290AD10478302C07D1022B1AD3BC
:1048800000205070302010700120F8BD069F8F422C
:104890000ED28D1C9D420ED8CD1B134606460097A6
:1048A000B9420AD034781C705B1C761C7F1CF7E779
:1048B000FD1C9D4212D90020F8BD009B002B2B4609
:1048C00002D02E2353556B1C4019D61800242F19E3
:1048D0008F4211D2075D3755641CF8E72E235370C1
:1048E000302515703C467E1AB31C971C002E05D04F
:1048F0003D707F1C761EF9E718190AE0151902268B
:10490000711A022904D006786E54401C491CF8E73D
:1049100060180021115483420AD2D55C00291C463C
:1049200000D00C46302D00D000245B1C2146F2E75D
:104930000120002906D000235354491E545C2E2C1C
:1049400000D15354F8BD70B514460D4606462021DB
:1049500008F060FF7561B46170BD70B514460D4616
:104960000646182108F056FFF560346170BD80B529
:10497000202108F04FFF80BD80B5182108F04AFFC4
:1049800080BDF8B51C4615460E460746202108F0A6
:1049900041FF0698FE603D617C61B861F8BDD4D4EA
:1049A000FEB50193029200910646382108F032FFCD
:1049B000184849460D182C46A734204600F02CF81C
:1049C0000027002800D03C46B4604C35284600F053
:1049D00023F8002800D03D46F56002F00FFD0146A7
:1049E000344610340C2520462A4609F0F3F82020DE
:1049F0000099315402F002FD014620462A4609F092
:104A0000E9F8099830630898F0620198B06202985A
:104A10007062FEBD2401000000215B2905D0425CCC
:104A2000491C002AF9D00020704701207047D4D4D7
:104A3000F0B585B0049105464F4C48460119012256
:104A40008A774E49405C032826D2484601194431F2
:104A50001422284608F0FEFE002800D088E04846D0
:104A600000195821415C583042781202511882785E
:104A7000C0780002801800044018049949690A7837
:104A80004B781B029A188B78C9780902C918090457
:104A9000891881424FD06BE06AD10020394A7A44AC
:104AA000009202950190C0B21821414354186068E9
:104AB00003F0C8FB00284FD00746207A0390002659
:104AC0002146002D2CD00398864229D204984569AE
:104AD00038680C4603F0B6FB017842781202511890
:104AE0008278C078000280180004401829786A781B
:104AF00012025118AA78EB781B029A181204511866
:104B00008142214608D1086800280DD003F09AFBA5
:104B100080472146002807D13F1D761C029DD0E723
:104B20000198401C009ABDE74846134C0019093112
:104B30001E2209F04FF84846001904218177FF2012
:104B40000230049900F020F8032803D348460119E5
:104B50000420887705B0F0BD09484946085C414209
:104B6000414168426841002D034CE8D00843F1E719
:104B7000002004F0B7FBC046940500001E010000B1
:104B80001D01000036B00000F0B595B006467C4827
:104B90004A46101814907B48101813907A4D5019FB
:104BA000847F032C02D2204615B0F0BD8320430041
:104BB00001249E4240D081204000864231D0FF2017
:104BC00002460432964217D041229200964221D0EA
:104BD00002460632964216D002308642E3D1A02029
:104BE000086113A8886014A848600A8048464019E4
:104BF00002464432CA6026E013A8486014A8086040
:104C00000120887713E013A8486014A808600120E9
:104C100008770CE013A8486014A8086001204875C4
:104C200005E013A8486014A80860012008754846EC
:104C300040194430082207E013A8486014A808600F
:104C40004846401944301C22885050484A46105C5F
:104C50000028039401932CD0012820D0022823D0CF
:104C600003283AD102910027494C7C44F8B218211C
:104C700041436518687A002844D0294609314846DE
:104C8000414A801808F02EFF7F1C0028EED1686989
:104C900003F0D8FA024630460299904732E0304697
:104CA0000291FEF7E9FD2DE030460291FEF732FA5F
:104CB00028E002911291119648464019109004AFD5
:104CC000384608F0F5FEB885000408D004A8002195
:104CD00081850E9804F03CFB08E0002463E704A8FB
:104CE00004F036FB0E9010A804F0B8FA04F026FB8E
:104CF00004A9884202D10E9804F02AFB04A8808DF2
:104D000000283BD1019886422FD081204000864266
:104D1000039C029A1FD0FF20014604318E4212D01C
:104D2000412189008E4214D0014606318E420CD0BA
:104D30000230864200D036E75078411E04468C414E
:104D4000042810D02FE7907F06E0107F032813D2AD
:104D500029E7507D00E0107D002804D004280BD006
:104D6000062809D01FE704461DE734200299085C95
:104D70000328039C00D216E7042414E702F053FB37
:104D8000E80700006C020000940500001E0100000E
:104D90006AAE000080B5142A00D31422891A20318B
:104DA00008F042FD80BD80B5202A00D3202208F003
:104DB0003BFD80BD80B506484946091842200022C7
:104DC0000A5443220120885405F0AEFC80BDC04641
:104DD00094050000F0B5FFB090B0044600690028CB
:104DE0001ED0A6683278531E0020092B60D893008D
:104DF000257B6D1E9D425BD10391701C17A9134644
:104E0000002B0FD005782D06467836047519867864
:104E10003602AD19C678AD1920C1001D5B1EEFE743
:104E2000002045E000200090212717AE04AD384651
:104E300031462B4604F0DEF93421304608F0EAFC16
:104E40002022384629463346FEF700F9002832D1A1
:104E500004AD4C21284608F0DDFC212017AA0123CF
:104E60002946FEF7EDF8002825D117AE342130464B
:104E700008F0D0FC0399086949690090019104ADDC
:104E800024AA28463146FFF713FC4C21284608F097
:104E9000C1FC216908784A7812021018074A90422A
:104EA00000D1891C304608F01DFE014640424841B1
:104EB0007FB010B0F0BD02F0B6FAC0463078000006
:104EC000F0B589B00E46054604460E343221204620
:104ED000049108F09FFC287B002720282AD8687BB3
:104EE000002814D00A210396304608F017FFC7B2F5
:104EF00005AE304603993A4608F092FC2020F05562
:104F0000F0190021417008A81222027009E02979E5
:104F1000286805AA08AB07F06AFB00280AD008A891
:104F20000278297BA8680094049B019305AB07F0E5
:104F300020FB0127384609B0F0BDD4D4F0B5D1B07C
:104F40000E460546FF24203409AF3846214608F0B6
:104F500061FCA9693522384608F03CFE3420395CF2
:104F60000020002939D1297B202936D8297D08291C
:104F700033D82979286805AA08AB07F038FB002840
:104F80002AD008A804900278297BA8684F230193AF
:104F900009AB03933533009305AF3B4607F0E9FABD
:104FA0000C223846314608F015FE12220498027091
:104FB0002869297D3223039E354684350095019367
:104FC0003B4607F0D6FA06484946081831462246BD
:104FD00008F026FC012000E0002051B0F0BDC046E2
:104FE000BA0600007CB520494C46605001F03AFBFF
:104FF0001E480125255402F06DFB1F48784403F03C
:1050000021F9007901280BD06C4625710020009011
:105010001A48784403F016F90522214604F0C6F830
:1050200013484E4630184521890008F0F3FB002450
:10503000204607F04DF90125284607F049F90620DA
:105040002146224604F036F90A497118C861204603
:10505000214600F0C5FC0A497944284600F0C0FC0E
:1050600001F088FD7CBDC046900500001D010000D8
:1050700030030000E40A000000C70000EAC6000098
:1050800012910000FEB520484C46201800210091E6
:1050900041841E4825185421284608F0BBFB01AE68
:1050A0000821304604F0FAF8042730463946FDF767
:1050B000A9FFE875000A2876301D3946FDF7A2FFE2
:1050C000009E12496654DE21A983F121E9766876B3
:1050D000000AA8760E4828840E482518C0212846C4
:1050E00008F098FBFF205230B02168520A4820187F
:1050F000AC216850284600F08DFD304631463246DE
:1051000000F00CF8FEBDC046E40A000004000000F8
:10511000FFFF00005800000090090000F0B587B0C4
:105120000446944D48464019008C934EB04201D03D
:10513000A04273D148464019407F00281FD0062A5C
:1051400024D3042822D1484640194A788B781B0280
:105150009A184284CA780B791B029A1882844A7979
:1051600089790523437709028918C1844846401983
:105170008349793101840120FBF764FD4EE0484604
:10518000401901214177FCF739F847E0022A20D382
:1051900007281ED1484640194A788978090289189B
:1051A0004A22815208214177484641197448F83013
:1051B00008844A20085A4C3101221023002400930D
:1051C0000194029403930492059102216D4A7A445A
:1051D00021E0022A24D3082822D1484640194A78DF
:1051E0008978090289184C22815209214177484661
:1051F00042196348F83010844A20105A4E32012375
:10520000102402210825009501950291039404932E
:1052100005925D4A7A449C23FBF792FE07B0F0BDED
:10522000022A15D3092813D1484640194A788978AB
:10523000090289184E2281520A21417748464019B5
:105240004F49C91C018401200721FBF7B3FFE5E7A3
:105250000B2812D1062000210A4604F02BF8414207
:10526000414148464719F977204600F0BFFBB87F17
:105270000628D3D148464019407F49464919421C67
:105280004A770B2817D001281DD0022825D00328E3
:105290002BD0042800D169E7052838D0062849D04A
:1052A000072881D00828A2D00928C7D00A2850D0C2
:1052B0000028B3D167E74846012141552F4A80189D
:1052C00020228154AAE7484642192D4810841732FB
:1052D0002E200621FBF742FFA0E748464019284947
:1052E000F5310184FBF7BCFD98E748464319244893
:1052F0007E301884184626301946243100910190DA
:105300002233012000211422FBF71AFD86E74846CC
:1053100040191B497A310184012000231021082201
:105320000092019102900393049001460246FBF71C
:10533000ABFC73E7484640191149F63101844A3005
:10534000009002201149794401220923FBF7A6FDB0
:1053500064E7484645190024AC772E840620214690
:10536000224603F0A7FF41424141E977204600F081
:105370003DFB53E704000000FFFF0000E40A0000CB
:105380000CFCFFFF56AB000020AB0000CEA90000D4
:10539000BCB500F0DDFC0F48494609185322895C72
:1053A000002900D0BCBD0C4B4946C918A8228A5C14
:1053B000022AF7D34C4620184C21415A4A25405B1B
:1053C000E3180C330093921ED3B20022FBF71EFEAB
:1053D000BCBDC0460400000058000000F0B58DB010
:1053E000F44E48468019C078042800D0CFE04846E3
:1053F00080190079FF281AD00E2853D03E2869D092
:10540000052800D0C3E0FC484A4613182824002190
:105410001955CC435C85F94BD2182124155DF84A07
:10542000002D00D1A0E04D46EB1819559DE04846EF
:1054300080194279042A00D2A9E04B469819047ACF
:10544000407A00020019EC4FDB195B8D984200D0C6
:105450009DE04B469B199C79DB791B021B199BB283
:10546000FD4CA34200D158E1FC4CA34200D1A3E182
:10547000FB4CA34200D1C5E1FA4CA34200D1FDE1AF
:10548000F94A934200D12EE2F84A934200D12EE22B
:10549000F7498B4200D13CE2F648834277D100F0D5
:1054A0005FFB74E0484680194279032A6FD34B466C
:1054B0009819C479007A00020019CF4C1B5D022BA9
:1054C00067D0002B67D14B469919093180B2FFF79D
:1054D00025FE5CE0484680194079002857D04846B0
:1054E000801980790C2800D184E0032800D196E04F
:1054F000072800D1ACE0012849D1BF484F463C18ED
:10550000BD19A87A2C216054E87A2D216054287A9C
:10551000697A09020818608520462E3029460C3128
:10552000062208F07DF9D4483818BA2117224252D1
:105530005221002363545021625228216354BC211C
:105540004354287E3A216054A87CE97C090208185B
:10555000A086287D697D09020818E086A87DE97D7E
:1055600009020818208712E004214B4602241C542B
:105570001D182A84A977062000242146224603F01C
:1055800099FE41424141E977204600F02FFA0DB0E3
:10559000F0BD80B2F9E780B2F34988427ED0F3498A
:1055A000884200D18CE0F2498842F0D14846011986
:1055B0005320095C0029EAD049460A1900231354F4
:1055C000E84BC818A821425C022AE0D3E9484D46BE
:1055D00028187D210901018328194C21415A4A24A8
:1055E000005BEB180C330093921ED3B20022FBF742
:1055F0000DFDCCE74A469019037A407A0002C318A1
:10560000D7481218528D9342C1D14A4610189119A9
:105610008A7A3B23C254C97A3C228154B7E74A466E
:105620009019017A437A1B025918CD4BD218518533
:10563000817AC37A1B0259189186017B437B1B0236
:105640005918D186817BC07B0002401810879EE7E5
:1056500048468219D379127A1202D318C04A8018A8
:10566000408D834293D14B469819C17A047B240222
:105670006418991840228C52427B837B1B029A1833
:105680004223CA52C27B037C1B029A184423CA528B
:10569000427A807A00028018C88778E7B54D48467C
:1056A00041192322895C0019408DB34A904200D1F0
:1056B00032E1002900D147E11621FBF787FB43E1E6
:1056C000A84D48464119A8270026CE554059002824
:1056D0001BD00020014600F03BFB48464019C25D4C
:1056E000022A0DD34B4618194C21415A4A24005B1B
:1056F0005B190C330093921ED3B20022FBF786FC99
:1057000048464059002800D041E79A4849460E547F
:105710004A19D6550818068339E7131F9BB2032B85
:1057200000D234E74C46E3195325012704975F550F
:10573000A519AC7AEF7A3F023C19A1B22D7B002D5E
:1057400000D1F0E05227DF5D002F00D1EBE04E27C3
:10575000DB5B5B1C8B4200D0E5E04F460391BC193C
:1057600020460B30511F89B200F060FA7C4838188F
:10577000408D0D3400950194002503992A462B464F
:10578000FBF7BCFC77483A18B221525C022A06D1DA
:10579000784A4B469A181B18B6241B5B5380754AEF
:1057A0004B46049C9C54181845549818022181714A
:1057B000EDE6C0464404000000257149714A7A4470
:1057C0002846FDF78BFC39464F467E18462170521D
:1057D00005AC25720621089183B2204610301021B5
:1057E000694A7A4402F052FB644868497944395066
:1057F00048200121315427E004000000E40A0000A1
:10580000FFFF00004D46A819817A0491C27A037BFC
:10581000407B05AC3E460127277206210891000611
:105820001904081811024018049943182046103032
:105830001021574A7A4402F029FB504855497944CF
:105840002950A81948214754232020701820069079
:10585000204603F0F7FC9AE6130C00000204000057
:1058600009040000010C0000020C0000030C000001
:105870000E0C00000104000058000000121F92B23C
:10588000062A00D283E64A4693191C7B5D7B2D02D3
:105890002C1900D07BE69C7BDD7B2D022C19022C81
:1058A00000D074E69C7ADB7A1B021B19D2194C24B7
:1058B000125B921C9A4200D069E64A4691190A7C12
:1058C000497C0902891844D04946CA195223012447
:1058D000D454244A8918BC22895C002900D056E699
:1058E000FBF7C2FB53E61621FBF770FA4FE61D48A3
:1058F0004A461018BC230124C45491198B7AC97AE2
:105900000902C918C91ED2195023D152BA22815294
:105910003DE6FBF7CFFB3AE648460019002910D0D8
:10592000282100220FE00F4A4B469C18A82700228E
:10593000E2559B190D33009501931346FBF7DEFBEF
:1059400025E628210122425448464019002141847D
:105950001DE64846C01952210022425417E6C046AF
:1059600004000000580000000A20000006FD0000AE
:1059700026FD0000E40A0000FFFF0000940B000079
:1059800040420F00D70300006D850000B9030000FE
:105990001B850000B3030000B0B5044600880F4922
:1059A0004A4638235354551861882971E268931C7C
:1059B000AB701B0A6B7003231B020B408002C018E4
:1059C000000AE870681DA16807F02EFFA089401D3D
:1059D00081B2284603F092FC0020B0BD44040000D0
:1059E00080B5002801D0FFF74DFB80BDF0B58DB02C
:1059F000564D494649190A8C55498A4203D082427C
:105A000001D00DB0F0BD48464019807F052806D072
:105A100000283FD14A4652195185002100E001215A
:105A20004A4652192823D154411C9177C8B20528FF
:105A300046D002284DD003286AD0042875D001280A
:105A400036D105AC0620A070812040002080484659
:105A500040190490451C1521284607F0DBFE092655
:105A600014223046294603F025FC07460498877522
:105A70002671781CE070FAB2601D294607F0D0FE4E
:105A80003448801C04990884781DC0B22146FBF775
:105A900005FCB6E749464A19411C9177CBB2052B64
:105AA000C4D1D27F002AC1D149464919801C8877C8
:105AB0004846405D0228A4D1484601214155A0E74F
:105AC000484640192349091D01840120FBF736FC93
:105AD00097E705AC0620607011202070A01C1F49BC
